:020000040000fa
:080000000002040000000000f2
:020000040000fa
:0400080028030000c9
:020000040000fa
:04000c0028030000c5
:020000040000fa
:0400100028030000c1
:020000040000fa
:0400140028030000bd
:020000040000fa
:0400180028030000b9
:020000040000fa
:04001c0028030000b5
:020000040000fa
:0400200028030000b1
:020000040000fa
:0400240028030000ad
:020000040000fa
:0400280028030000a9
:020000040000fa
:04002c0028030000a5
:020000040000fa
:0400300028030000a1
:020000040000fa
:04003400280300009d
:020000040000fa
:0400380008030000b9
:020000040000fa
:04003c002803000095
:020000040000fa
:040040002803000091
:020000040000fa
:04004400280300008d
:020000040000fa
:040048002803000089
:020000040000fa
:04004c002803000085
:020000040000fa
:040050002803000081
:020000040000fa
:04005400280300007d
:020000040000fa
:040058002803000079
:020000040000fa
:04005c002803000075
:020000040000fa
:040060001003000089
:020000040000fa
:04006400280300006d
:020000040000fa
:040068002803000069
:020000040000fa
:04006c002803000065
:020000040000fa
:040070002803000061
:020000040000fa
:04007400280300005d
:020000040000fa
:040078002803000059
:020000040000fa
:04007c002803000055
:020000040000fa
:040080002803000051
:020000040000fa
:04008400280300004d
:020000040000fa
:040088001803000059
:020000040000fa
:04008c002803000045
:020000040000fa
:040090002803000041
:020000040000fa
:04009400280300003d
:020000040000fa
:040098002803000039
:020000040000fa
:04009c002803000035
:020000040000fa
:0400a0002803000031
:020000040000fa
:0400a400280300002d
:020000040000fa
:0400a8002803000029
:020000040000fa
:0400ac002803000025
:020000040000fa
:0400b0002803000021
:020000040000fa
:0400b400c80200007e
:020000040000fa
:0400b8002003000021
:020000040000fa
:0400bc002803000015
:020000040000fa
:0400c0002803000011
:020000040000fa
:0400c400280300000d
:020000040000fa
:0400c8002803000009
:020000040000fa
:0400cc002803000005
:020000040000fa
:0400d0002803000001
:020000040000fa
:0400d40028030000fd
:020000040000fa
:0400d80028030000f9
:020000040000fa
:0400dc0028030000f5
:020000040000fa
:0400e00028030000f1
:020000040000fa
:0400e40028030000ed
:020000040000fa
:0400e80028030000e9
:020000040000fa
:0400ec0028030000e5
:020000040000fa
:0400f00028030000e1
:020000040000fa
:0400f40028030000dd
:020000040000fa
:0400f80028030000d9
:020000040000fa
:0400fc0028030000d5
:020000040000fa
:0401000028030000d0
:020000040000fa
:0401040028030000cc
:020000040000fa
:04010800e802000009
:020000040000fa
:04010c0028030000c4
:020000040000fa
:0401100028030000c0
:020000040000fa
:0401140028030000bc
:020000040000fa
:0401180028030000b8
:020000040000fa
:04011c0028030000b4
:020000040000fa
:0401200028030000b0
:020000040000fa
:0401240028030000ac
:020000040000fa
:0401280028030000a8
:020000040000fa
:04012c0028030000a4
:020000040000fa
:0401300028030000a0
:020000040000fa
:04013400280300009c
:020000040000fa
:040138002803000098
:020000040000fa
:04013c002803000094
:020000040000fa
:040140002803000090
:020000040000fa
:04014400280300008c
:020000040000fa
:0402080028030000c7
:020000040000fa
:04020c0028030000c3
:020000040000fa
:0402100028030000bf
:020000040000fa
:0402140028030000bb
:020000040000fa
:0402180028030000b7
:020000040000fa
:04021c0028030000b3
:020000040000fa
:0402200028030000af
:020000040000fa
:0402240028030000ab
:020000040000fa
:0402280028030000a7
:020000040000fa
:04022c0028030000a3
:020000040000fa
:04023000280300009f
:020000040000fa
:04023400280300009b
:020000040000fa
:0402380008030000b7
:020000040000fa
:04023c002803000093
:020000040000fa
:04024000280300008f
:020000040000fa
:04024400280300008b
:020000040000fa
:040248002803000087
:020000040000fa
:04024c002803000083
:020000040000fa
:04025000280300007f
:020000040000fa
:04025400280300007b
:020000040000fa
:040258002803000077
:020000040000fa
:04025c002803000073
:020000040000fa
:040260001003000087
:020000040000fa
:04026400280300006b
:020000040000fa
:040268002803000067
:020000040000fa
:04026c002803000063
:020000040000fa
:04027000280300005f
:020000040000fa
:04027400280300005b
:020000040000fa
:040278002803000057
:020000040000fa
:04027c002803000053
:020000040000fa
:04028000280300004f
:020000040000fa
:04028400280300004b
:020000040000fa
:040288001803000057
:020000040000fa
:04028c002803000043
:020000040000fa
:04029000280300003f
:020000040000fa
:04029400280300003b
:020000040000fa
:040298002803000037
:020000040000fa
:04029c002803000033
:020000040000fa
:0402a000280300002f
:020000040000fa
:0402a400280300002b
:020000040000fa
:0402a8002803000027
:020000040000fa
:0402ac002803000023
:020000040000fa
:0402b000280300001f
:020000040000fa
:0402b400c80200007c
:020000040000fa
:0402b800200300001f
:020000040000fa
:0402bc002803000013
:020000040000fa
:0402c000280300000f
:020000040000fa
:0402c400280300000b
:020000040000fa
:0402c8002803000007
:020000040000fa
:0402cc002803000003
:020000040000fa
:0402d00028030000ff
:020000040000fa
:0402d40028030000fb
:020000040000fa
:0402d80028030000f7
:020000040000fa
:0402dc0028030000f3
:020000040000fa
:0402e00028030000ef
:020000040000fa
:0402e40028030000eb
:020000040000fa
:0402e80028030000e7
:020000040000fa
:0402ec0028030000e3
:020000040000fa
:0402f00028030000df
:020000040000fa
:0402f40028030000db
:020000040000fa
:0402f80028030000d7
:020000040000fa
:0402fc0028030000d3
:020000040000fa
:0403000028030000ce
:020000040000fa
:0403040028030000ca
:020000040000fa
:04030800e802000007
:020000040000fa
:04030c0028030000c2
:020000040000fa
:0403100028030000be
:020000040000fa
:0403140028030000ba
:020000040000fa
:0403180028030000b6
:020000040000fa
:04031c0028030000b2
:020000040000fa
:0403200028030000ae
:020000040000fa
:0403240028030000aa
:020000040000fa
:0403280028030000a6
:020000040000fa
:04032c0028030000a2
:020000040000fa
:04033000280300009e
:020000040000fa
:04033400280300009a
:020000040000fa
:040338002803000096
:020000040000fa
:04033c002803000092
:020000040000fa
:04034000280300008e
:020000040000fa
:04034400280300008a
:020000040000fa
:100400000f8020000e3f24000e0188000000000035
:10041000000020000000e000020032000001200087
:1004200020028800140007008b0007000000e00095
:1004300003003a00c0a220000100200002003700a3
:100440000000200001002000810f70000100320038
:1004500014000700000020000000e000020032004d
:100460000000020000000000e007020000000000a1
:100470000040da000000fe004440a9000000200017
:100480000000e0000300320000002000a00188000e
:100490004440a800000006008a1f78008b1f7800e7
:1004a0000000060091018800800478000000eb0045
:1004b0001a003700e284440032a0b4009905ba0063
:1004c000e284440032a0b4009906ba00e2844400f9
:1004d00032a0b4000006eb00476fde00fd07b2005b
:1004e000636ce10003003a00ebff07000000eb0043
:1004f0000a003700606ce10004003a00005deb0088
:100500008b05e900fdff3e00040037006168e10053
:10051000010032000086eb000b00070019c7ba008b
:100520001905ba000e04e00003003a000a00e000da
:10053000e0ff3a0000000600fe07b2009e018800be
:100540008a047800f5ff3700395dba008b05e900b1
:100550000c003200295dba008b05e900080032006a
:100560000c00e00003003a00e284440032a0b40032
:10057000f5ff370019ddba008b05e900faff3a00f4
:100580008904e800e184440032a0b40000000600c1
:10059000801f78000000fa008860a90050208000c9
:1005a000610060000000e000010032000a04a900c0
:1005b00050208000620060000000e0000100320076
:1005c0000a24a9000080fa004f00780000400600cd
:1005d000801f78000000fa008b00a90050288000de
:1005e000610060000000e000010032000a05a9007f
:1005f00050288000620060000000e000010032002e
:100600000a25a9000080fa004f007800004006008b
:100610000000fa008480a9000080fa000040060073
:100620000000fa0085c0a9000080fa000040060022
:100630000000fa008700a9000080fa0000400600d0
:100640000000fa008880a9000080fa00004006003f
:0c0650000040da000000fe000000050081
:020000040000fa
:10065c002000fa00889fbe00200f9800320f9800ef
:10066c00430f9800510f9800640f9800750f980075
:10067c006000b800008fbe006000b8002007980032
:10068c00310798006000b8004007980051079800a7
:10069c000004a8002e08900000004000000040005c
:1006ac008000780000442000008040006007980023
:1006bc002e0890004280de00000040008000780090
:1006cc000042200000804000700798002e08900027
:1006dc004380de0000004000800078008041200054
:1006ec0000804000000f980040412000100f98003f
:1006fc005e089000e10f500049003a003e0990005e
:10070c00ce099000f0ff2f000100200002027800bb
:10071c000301780080017800010078000302620078
:10072c00000061008000eb00c000dd000000200034
:10073c000001be006120b8000001710081817100d0
:10074c0022079800330798003e089000ce089000ce
:10075c00408cde00cf8cde000801be003000200093
:10076c00010020000202780003017800800178006b
:10077c000100780003026200000061008000eb00c1
:10078c00c000dd00000020000001be006120b800a8
:10079c000001710081817100420798005307980095
:1007ac003e089000ce089000428bde00cf8bde001e
:1007bc000601be00f07f200001002000020278003c
:1007cc0083017800000178000100780002016200ca
:1007dc00008061008000eb00c000dd000000200004
:1007ec00008fbe006110b8001e1f70001e977000b5
:1007fc001e007800c500dd004e0090000080400017
:10080c00e80040006e009000010878006e00900037
:10081c000080e800ae009000010878001900370055
:10082c003e099000ce099000f07f200001002000ce
:10083c000202780083017800000178000100780042
:10084c0002016200008061008000eb00c000dd004e
:10085c0000002000008fbe006110b8001e1f700049
:10086c001e9770001e007800c500dd006e00900021
:10087c00010878006e0090000080e8008000eb001a
:10088c00010878007e009000900078002e089000ff
:10089c00630060004200dd00f20020000010dd006b
:1008ac000080ea00808060007e00900001087800e3
:1008bc002e089000630060004200dd00ee089000fe
:1008cc008008dd007e009000100078008100700030
:1008dc007e009000010878000e08900090007800cf
:1008ec002e089000670060000000400032002000dd
:1008fc000010dd000080ea00808060000e0890008f
:10090c00010878002e08900067006000000040008d
:10091c00fe0890008008dd000e08900010007800a2
:10092c00810070000e089000010878001100200072
:10093c002e0890000008dd00800078001e08900052
:10094c0010007800810070001e08900001087800eb
:10095c000004a9004f04be000080fa00000006004d
:10096c001800fa00889fbe0070079800020f9800cc
:10097c00130f9800210f9800340f98006000b800f6
:10098c00008fbe006000b800200798003107980067
:10099c006000b80040079800510798000004a800b8
:1009ac007e009000000040000000400080007800b5
:1009bc000043200000804000600798003e08900033
:1009cc00e10f500053003a000e0990009e09900070
:1009dc00f0ff2f00010020000202780003017800d4
:1009ec0080017800010078000302620000006100c1
:1009fc008000eb00c000dd00000020000001be0004
:100a0c006120b800000171008181710022079800fb
:100a1c00330798000e0890009e089000408cde0072
:100a2c00cf8cde000801be00300020000100200049
:100a3c000202780003017800800178000100780040
:100a4c0003026200000061008000eb00c000dd00ca
:100a5c00000020000001be006120b8000001710000
:100a6c008181710042079800530798000e0890008e
:100a7c009e089000428bde00cf8bde000601be008c
:100a8c00f07f200001002000020278008301780032
:100a9c000001780001007800020162000080610012
:100aac008000eb00c000dd0000002000008fbe00c5
:100abc006110b8001e1f70001e9770002e08900069
:100acc00e10f500008003a001e007800c500dd0060
:100adc004e00900000804000e80040006e00900046
:100aec0001087800060037001e007800c500dd0004
:100afc004e009000808040006e009000010878004d
:100b0c006e0090000080e800ae00900001087800b4
:100b1c00220037000e0990009e099000f07f200003
:100b2c0001002000020278008301780000017800a7
:100b3c000100780002016200008061008000eb007f
:100b4c00c000dd0000002000008fbe006110b80066
:100b5c001e1f70001e9770002e089000e10f5000b1
:100b6c0006003a001e0078004500dd00e800400059
:100b7c006e00900001087800040037001e00780019
:100b8c00c500dd006e009000010878006e0090003a
:100b9c000080e8008000eb00010878000004a90048
:100bac004f04be000080fa00000006002200fa008c
:100bbc00889fbe00400f9800520f9800630f98005a
:100bcc00710f9800041798006000b800008fbe00e9
:100bdc006000b80020079800310798006000b8004a
:100bec0040079800510798006000b8006007980013
:100bfc00710798006000b800000f9800110f980062
:100c0c006000b800200f9800310f98007e0890000b
:100c1c000000e000460032005e099000ee099000f2
:100c2c00f00320000100200002027800030178008c
:100c3c00800178000100780003026200000061006e
:100c4c008000eb00c000dd00000020000001be00b1
:100c5c006120b8000001710081817100020f9800c1
:100c6c00130f98005e089000ee0890004a09dd0012
:100c7c004604de0008047100c68cde000801be00cc
:100c8c00f0ff200001002000020278000301780030
:100c9c00800178000100780003026200000061000e
:100cac008000eb00c000dd00000020000001be0051
:100cbc006120b8000001710081817100220f980041
:100ccc00330f98005e089000ee089000428bde0017
:100cdc00cf8bde000601be00f07f2000010020005b
:100cec00020278000301780080017800010078008e
:100cfc0003026200000061008000eb00c000dd0018
:100d0c00000020000001be006120b800000171004d
:100d1c008181710062079800730798002e0990007a
:100d2c00be09900022079800330798001300370083
:100d3c005e099000ee099000f07f20000100200079
:100d4c00020278000301780080017800010078002d
:100d5c0003026200000061008000eb00c000dd00b7
:100d6c00000020000001be006120b80000017100ed
:100d7c008181710062079800730798000e10900033
:100d8c00e10f500017003a006e009000fe0090003a
:100d9c004209dd00ce01de00830171004201dd005d
:100dac007e0890008000eb000000710081807100d3
:100dbc000001be000210a000028fbe000e099000c0
:100dcc009e0990004a18dd00c610de0081007000fc
:100ddc004a10dd000090a0004007980051079800d1
:100dec00120037006e009000fe0090004209dd00fa
:100dfc00ce01de00830171004201dd007e0890000f
:100e0c008000eb00001f7100019771000e0990002b
:100e1c009e0990004a18dd00c610de0081007000ab
:100e2c004a10dd0040079800510798007e0890009a
:100e3c000000e000090032001e00780080007800fd
:100e4c000110a0004e0890004401dd000040240079
:100e5c000000410001087800120037009e00780065
:100e6c004e0890004401dd000040240000004100c9
:100e7c0001087800ae0090004e0890004401dd009f
:100e8c00204024000000410001087800ce009000b2
:100e9c004e0890004401dd00404024000000410059
:100eac00010878004f04be000080fa000000060024
:100ebc000c00fa00000f7800110798002207980028
:100ecc003307980044079800550798001e007800d7
:100edc004400dd00e400400000402400008040009d
:100eec009000780000ff2f00808060001e009000b2
:100efc00808040001e0078004401dd00404024004a
:100f0c0000004100010878001e007800c400dd00dc
:100f1c006040240000804000ae0090000108780082
:100f2c001e007800c400dd008040240000804000da
:100f3c00be009000010878001e007800c400dd009f
:100f4c00a040240000804000ce00900001087800f2
:100f5c001e007800c400dd00c0402400008040006a
:100f6c00de009000010878000080fa000000060006
:100f7c000400fa00100798000004a800404120006b
:100f8c00000f78001e0078009000780012002000fe
:100f9c001e0090000010dd000080ea0080806000e0
:100fac001e007800010878000004a9000080fa00f7
:100fbc00000006000000fa006b000700620007004a
:100fcc00ce00070092000700a00007009860a80060
:100fdc000c04a8000c24a8009b00a8000c05a80079
:100fec000c25a800070007003064a8003164a80095
:100ffc003264a8003364a8003464a8003564a800e7
:10100c00ffff37000000fa000002eb001100200087
:10101c00f2ff2f00e3ff21000000eb00e3fe0700ce
:10102c00151121001411210013112100121121009e
:10103c00810020000000eb009dff07000002eb0088
:10104c0011002000f2ff2f00e3ff21001000200010
:10105c00d6fe070025222200242222002322220071
:10106c0022222200810020001000200090ff0700a7
:10107c000002eb0011002000f2ff2f00e3ff210023
:10108c0020002000c9fe0700353323003433230031
:10109c003333230032332300810020002000200052
:1010ac0083ff07000002eb0011002000f2ff2f006d
:1010bc00e3ff210030002000bcfe07004544240063
:1010cc004444240043442400424424008100200072
:1010dc003000200076ff07000002eb00110020001a
:1010ec00f2ff2f00e3ff210040002000affe0700bd
:1010fc0055552500545525005355250052552500ae
:10110c00810020004000200069ff07000002eb0076
:10111c0011002000f2ff2f00e3ff210050002000ff
:10112c00a2fe07006566260064662600636626003c
:10113c006266260081002000500020005cff070042
:10114c000080fa00000006000000fa008420ef0086
:10115c008620ef008820ef008a20ef008c20ef0023
:10116c000080fa00000006000000fa006002200077
:10117c00303a8800213a8000f0f32f0000806000a4
:10118c00203a8800213a800000fe2f000080600089
:10119c00203a88004827ef0040a7a9003200200021
:1011ac0080072000a10920003374200080497800ba
:1011bc0081497800824978001200200060042000e8
:1011cc007105200023742000804978008149780043
:1011dc008249780000000000113a800000002700ce
:1011ec008080600000002300808f5000faff3a00de
:1011fc0000000000113a8000000220000080600016
:10120c000000e000fbff32000080fa000000060046
:10121c000000fa00e023ef0000022200001c88000e
:10122c0020442000401c880070002000501c8800c6
:10123c0060042000101c880000402000201c880046
:10124c0081e3a8000080fa00000006000000fa000c
:10125c00e023ef0000022000c01c880000442000a6
:10126c00001d880070002000101d88002002200046
:10127c00d01c880000402000e01c880099e3a800e6
:10128c000080fa00000006000000fa000164a800cb
:10129c0081208000000c200001007000802088005c
:1012ac008120800000fc2f000080600080208800de
:1012bc0091208000800320000100700090208800a5
:1012cc0012e4a80091208000f08f2f008080600035
:1012dc0000502000010070009020880091208000b8
:1012ec0080ff2f00008060000020a000902088006c
:1012fc0012c4a8000080fa00000006000000fa00ea
:10130c0001208000f08f2f000080600000a0a00062
:10131c00002088000000000001208000000e20004a
:10132c008080600000082000808f5000faff3a0097
:10133c00d5ff07003120800000fe2f0000806000e8
:10134c000030a0003020880031208000f0ff210008
:10135c008080600000002c000100700030208800ac
:10136c008002eb00f400200011002000f2ff2f009f
:10137c00e3ff210010002000b5fc07001400200042
:10138c0011002000f2ff2f00f3ff210010002000bd
:10139c0073fd070001208000f08f2f00008060009b
:1013ac00002088000000000001208000000e2000ba
:1013bc00008060000000e000fbff3a002a24ef00f0
:1013cc00502180004021880040218000102188009d
:1013dc00102180000021880030e4a80031e4a8002e
:1013ec0032e4a80033e4a80034e4a80035e4a800f3
:1013fc00802180003000b300802188008121800092
:10140c0000302000010070008021880090218000b5
:10141c003000b30090218800912180000030200022
:10142c000100700090218800a02180003000b300e2
:10143c00a0218800a1218000003020000100700054
:0c144c00a02188000080fa0000000600cb
:020000040000fa
:10145800004400000002000000000000000000003e
:020000040000fa
:0200000401f009
:04000000ffffff00ff
:020000040000fa
:0200000401f009
:04000400ffffff00fb
:020000040000fa
:0200000401f009
:04000800ffffff00f7
:020000040000fa
:0200000401f009
:04000c00f8ff0000f9
:020000040000fa
:0200000401f009
:04001000bdff000030
:020000040000fa
:0200000401f009
:040014007fff00006a
:020000040000fa
:0200000401f009
:04001800ffff0000e6
:020000040000fa
:0200000401f009
:04001c00dfff000002
:00000001FF
